{
  "contractName": "CreditCardLimit",
  "abi": [
    {
      "inputs": [
        {
          "internalType": "uint256",
          "name": "initialLimit",
          "type": "uint256"
        },
        {
          "internalType": "uint256",
          "name": "food",
          "type": "uint256"
        },
        {
          "internalType": "uint256",
          "name": "travel",
          "type": "uint256"
        },
        {
          "internalType": "uint256",
          "name": "stay",
          "type": "uint256"
        }
      ],
      "name": "find_balance",
      "outputs": [],
      "stateMutability": "nonpayable",
      "type": "function"
    },
    {
      "inputs": [],
      "name": "get_balance",
      "outputs": [
        {
          "internalType": "uint256",
          "name": "",
          "type": "uint256"
        }
      ],
      "stateMutability": "view",
      "type": "function"
    }
  ],
  "bytecode": "0x608060405234801561001057600080fd5b50610211806100206000396000f3fe608060405234801561001057600080fd5b50600436106100365760003560e01c80635afaa5e01461003b578063c1cfb99a14610057575b600080fd5b610055600480360381019061005091906100e7565b610075565b005b61005f6100a3565b60405161006c919061015d565b60405180910390f35b8082848661008391906101a7565b61008d91906101a7565b61009791906101a7565b60008190555050505050565b60008054905090565b600080fd5b6000819050919050565b6100c4816100b1565b81146100cf57600080fd5b50565b6000813590506100e1816100bb565b92915050565b60008060008060808587031215610101576101006100ac565b5b600061010f878288016100d2565b9450506020610120878288016100d2565b9350506040610131878288016100d2565b9250506060610142878288016100d2565b91505092959194509250565b610157816100b1565b82525050565b6000602082019050610172600083018461014e565b92915050565b7f4e487b7100000000000000000000000000000000000000000000000000000000600052601160045260246000fd5b60006101b2826100b1565b91506101bd836100b1565b92508282039050818111156101d5576101d4610178565b5b9291505056fea2646970667358221220a38373ae14f336764418cf8a5590d9029c35b4e868bcc5fe865ceb92090e52fc64736f6c63430008110033",
  "immutableReferences": {},
  "source": "//Sakshi Gadegaonkar 2019130012\r\n// SPDX-License-Identifier: GPL-3.0\r\npragma solidity >= 0.7.0;\r\n\r\ncontract CreditCardLimit {\r\n    uint finalBalance;\r\n    \r\n    function find_balance(uint initialLimit, uint food, uint travel, uint stay) public {\r\n        finalBalance = initialLimit - food - travel - stay;\r\n    }\r\n\r\n    function get_balance () view public returns (uint) {\r\n        return finalBalance;\r\n    }\r\n}\r\n",
  "sourcePath": "C:\\Users\\sgade\\OneDrive\\Desktop\\Engineering\\BE\\BCT Lab\\New\\contracts\\creditLimit.sol",
  "compiler": {
    "name": "solc",
    "version": "0.8.17+commit.8df45f5f.Emscripten.clang"
  },
  "schemaVersion": "3.4.10",
  "updatedAt": "2022-11-01T09:50:26.746Z",
  "devdoc": {
    "kind": "dev",
    "methods": {},
    "version": 1
  },
  "userdoc": {
    "kind": "user",
    "methods": {},
    "version": 1
  }
}